{
  "contractName": "Booking",
  "abi": [
    {
      "inputs": [],
      "stateMutability": "nonpayable",
      "type": "constructor"
    },
    {
      "anonymous": false,
      "inputs": [
        {
          "indexed": false,
          "internalType": "address",
          "name": "_userBooking",
          "type": "address"
        },
        {
          "indexed": false,
          "internalType": "string",
          "name": "_bookingId",
          "type": "string"
        }
      ],
      "name": "BookedTimeSlot",
      "type": "event"
    },
    {
      "anonymous": false,
      "inputs": [
        {
          "indexed": false,
          "internalType": "address",
          "name": "_userBooking",
          "type": "address"
        },
        {
          "indexed": false,
          "internalType": "string",
          "name": "_bookingId",
          "type": "string"
        }
      ],
      "name": "CanceledBooking",
      "type": "event"
    },
    {
      "inputs": [
        {
          "internalType": "uint256",
          "name": "",
          "type": "uint256"
        }
      ],
      "name": "availableTimes",
      "outputs": [
        {
          "internalType": "string",
          "name": "",
          "type": "string"
        }
      ],
      "stateMutability": "view",
      "type": "function"
    },
    {
      "inputs": [
        {
          "internalType": "string",
          "name": "",
          "type": "string"
        }
      ],
      "name": "bookings",
      "outputs": [
        {
          "internalType": "address",
          "name": "userBooking",
          "type": "address"
        },
        {
          "internalType": "string",
          "name": "timeSlot",
          "type": "string"
        },
        {
          "internalType": "string",
          "name": "roomId",
          "type": "string"
        },
        {
          "internalType": "bool",
          "name": "isBooked",
          "type": "bool"
        }
      ],
      "stateMutability": "view",
      "type": "function"
    },
    {
      "inputs": [
        {
          "internalType": "uint256",
          "name": "",
          "type": "uint256"
        }
      ],
      "name": "rooms",
      "outputs": [
        {
          "internalType": "string",
          "name": "",
          "type": "string"
        }
      ],
      "stateMutability": "view",
      "type": "function"
    },
    {
      "inputs": [],
      "name": "listRooms",
      "outputs": [
        {
          "internalType": "string[20]",
          "name": "",
          "type": "string[20]"
        }
      ],
      "stateMutability": "view",
      "type": "function"
    },
    {
      "inputs": [],
      "name": "listTimes",
      "outputs": [
        {
          "internalType": "string[9]",
          "name": "",
          "type": "string[9]"
        }
      ],
      "stateMutability": "view",
      "type": "function"
    },
    {
      "inputs": [
        {
          "internalType": "string",
          "name": "_room",
          "type": "string"
        },
        {
          "internalType": "string",
          "name": "_timeSlot",
          "type": "string"
        }
      ],
      "name": "bookRoom",
      "outputs": [],
      "stateMutability": "nonpayable",
      "type": "function"
    },
    {
      "inputs": [
        {
          "internalType": "string",
          "name": "_bookingId",
          "type": "string"
        }
      ],
      "name": "cancelBooking",
      "outputs": [],
      "stateMutability": "nonpayable",
      "type": "function"
    },
    {
      "inputs": [
        {
          "internalType": "string",
          "name": "_bookingId",
          "type": "string"
        }
      ],
      "name": "checkAvailability",
      "outputs": [
        {
          "internalType": "bool",
          "name": "",
          "type": "bool"
        },
        {
          "internalType": "address",
          "name": "",
          "type": "address"
        }
      ],
      "stateMutability": "view",
      "type": "function"
    }
  ],
  "bytecode": "0x60806040526040518061028001604052806040518060400160405280600381526020017f433031000000000000000000000000000000000000000000000000000000000081525081526020016040518060400160405280600381526020017f433032000000000000000000000000000000000000000000000000000000000081525081526020016040518060400160405280600381526020017f433033000000000000000000000000000000000000000000000000000000000081525081526020016040518060400160405280600381526020017f433034000000000000000000000000000000000000000000000000000000000081525081526020016040518060400160405280600381526020017f433035000000000000000000000000000000000000000000000000000000000081525081526020016040518060400160405280600381526020017f433036000000000000000000000000000000000000000000000000000000000081525081526020016040518060400160405280600381526020017f433037000000000000000000000000000000000000000000000000000000000081525081526020016040518060400160405280600381526020017f433038000000000000000000000000000000000000000000000000000000000081525081526020016040518060400160405280600381526020017f433039000000000000000000000000000000000000000000000000000000000081525081526020016040518060400160405280600381526020017f433130000000000000000000000000000000000000000000000000000000000081525081526020016040518060400160405280600381526020017f503031000000000000000000000000000000000000000000000000000000000081525081526020016040518060400160405280600381526020017f503032000000000000000000000000000000000000000000000000000000000081525081526020016040518060400160405280600381526020017f503033000000000000000000000000000000000000000000000000000000000081525081526020016040518060400160405280600381526020017f503034000000000000000000000000000000000000000000000000000000000081525081526020016040518060400160405280600381526020017f503035000000000000000000000000000000000000000000000000000000000081525081526020016040518060400160405280600381526020017f503036000000000000000000000000000000000000000000000000000000000081525081526020016040518060400160405280600381526020017f503037000000000000000000000000000000000000000000000000000000000081525081526020016040518060400160405280600381526020017f503038000000000000000000000000000000000000000000000000000000000081525081526020016040518060400160405280600381526020017f503039000000000000000000000000000000000000000000000000000000000081525081526020016040518060400160405280600381526020017f50313000000000000000000000000000000000000000000000000000000000008152508152506001906014620004bc92919062000741565b506040518061012001604052806040518060400160405280600281526020017f303900000000000000000000000000000000000000000000000000000000000081525081526020016040518060400160405280600281526020017f313000000000000000000000000000000000000000000000000000000000000081525081526020016040518060400160405280600281526020017f313100000000000000000000000000000000000000000000000000000000000081525081526020016040518060400160405280600281526020017f313200000000000000000000000000000000000000000000000000000000000081525081526020016040518060400160405280600281526020017f313300000000000000000000000000000000000000000000000000000000000081525081526020016040518060400160405280600281526020017f313400000000000000000000000000000000000000000000000000000000000081525081526020016040518060400160405280600281526020017f313500000000000000000000000000000000000000000000000000000000000081525081526020016040518060400160405280600281526020017f313600000000000000000000000000000000000000000000000000000000000081525081526020016040518060400160405280600281526020017f31370000000000000000000000000000000000000000000000000000000000008152508152506015906009620006ec9291906200079b565b50348015620006fa57600080fd5b50336000806101000a81548173ffffffffffffffffffffffffffffffffffffffff021916908373ffffffffffffffffffffffffffffffffffffffff16021790555062000978565b826014810192821562000788579160200282015b828111156200078757825182908051906020019062000776929190620007f5565b509160200191906001019062000755565b5b50905062000797919062000886565b5090565b8260098101928215620007e2579160200282015b82811115620007e1578251829080519060200190620007d0929190620007f5565b5091602001919060010190620007af565b5b509050620007f1919062000886565b5090565b828054620008039062000942565b90600052602060002090601f01602090048101928262000827576000855562000873565b82601f106200084257805160ff191683800117855562000873565b8280016001018555821562000873579182015b828111156200087257825182559160200191906001019062000855565b5b509050620008829190620008ae565b5090565b5b80821115620008aa5760008181620008a09190620008cd565b5060010162000887565b5090565b5b80821115620008c9576000816000905550600101620008af565b5090565b508054620008db9062000942565b6000825580601f10620008ef575062000910565b601f0160209004906000526020600020908101906200090f9190620008ae565b5b50565b7f4e487b7100000000000000000000000000000000000000000000000000000000600052602260045260246000fd5b600060028204905060018216806200095b57607f821691505b6020821081141562000972576200097162000913565b5b50919050565b6113e580620009886000396000f3fe608060405234801561001057600080fd5b50600436106100885760003560e01c8063502bf35e1161005b578063502bf35e1461012957806361718a3d1461015c578063daec7f2714610178578063e1409a401461019457610088565b806310f701921461008d5780631bae0ac8146100ab5780632017b3dc146100db5780632a875521146100f9575b600080fd5b6100956101c5565b6040516100a29190610c70565b60405180910390f35b6100c560048036038101906100c09190610cdc565b610292565b6040516100d29190610d53565b60405180910390f35b6100e3610335565b6040516100f09190610e17565b60405180910390f35b610113600480360381019061010e9190610cdc565b610402565b6040516101209190610d53565b60405180910390f35b610143600480360381019061013e9190610f6e565b6104a5565b6040516101539493929190611013565b60405180910390f35b61017660048036038101906101719190611066565b610628565b005b610192600480360381019061018d9190610f6e565b610803565b005b6101ae60048036038101906101a99190610f6e565b610970565b6040516101bc9291906110de565b60405180910390f35b6101cd6109ee565b6001601480602002604051908101604052809291906000905b828210156102895783820180546101fc90611136565b80601f016020809104026020016040519081016040528092919081815260200182805461022890611136565b80156102755780601f1061024a57610100808354040283529160200191610275565b820191906000526020600020905b81548152906001019060200180831161025857829003601f168201915b5050505050815260200190600101906101e6565b50505050905090565b600181601481106102a257600080fd5b0160009150905080546102b490611136565b80601f01602080910402602001604051908101604052809291908181526020018280546102e090611136565b801561032d5780601f106103025761010080835404028352916020019161032d565b820191906000526020600020905b81548152906001019060200180831161031057829003601f168201915b505050505081565b61033d610a16565b6015600980602002604051908101604052809291906000905b828210156103f957838201805461036c90611136565b80601f016020809104026020016040519081016040528092919081815260200182805461039890611136565b80156103e55780601f106103ba576101008083540402835291602001916103e5565b820191906000526020600020905b8154815290600101906020018083116103c857829003601f168201915b505050505081526020019060010190610356565b50505050905090565b6015816009811061041257600080fd5b01600091509050805461042490611136565b80601f016020809104026020016040519081016040528092919081815260200182805461045090611136565b801561049d5780601f106104725761010080835404028352916020019161049d565b820191906000526020600020905b81548152906001019060200180831161048057829003601f168201915b505050505081565b601e818051602081018201805184825260208301602085012081835280955050505050506000915090508060000160009054906101000a900473ffffffffffffffffffffffffffffffffffffffff169080600101805461050490611136565b80601f016020809104026020016040519081016040528092919081815260200182805461053090611136565b801561057d5780601f106105525761010080835404028352916020019161057d565b820191906000526020600020905b81548152906001019060200180831161056057829003601f168201915b50505050509080600201805461059290611136565b80601f01602080910402602001604051908101604052809291908181526020018280546105be90611136565b801561060b5780601f106105e05761010080835404028352916020019161060b565b820191906000526020600020905b8154815290600101906020018083116105ee57829003601f168201915b5050505050908060030160009054906101000a900460ff16905084565b6000828260405160200161063d9291906111d5565b604051602081830303815290604052905060001515601e826040516106629190611244565b908152602001604051809103902060030160009054906101000a900460ff161515146106c3576040517f08c379a00000000000000000000000000000000000000000000000000000000081526004016106ba906112cd565b60405180910390fd5b600060405180608001604052803373ffffffffffffffffffffffffffffffffffffffff16815260200184815260200185815260200160011515815250905080601e836040516107129190611244565b908152602001604051809103902060008201518160000160006101000a81548173ffffffffffffffffffffffffffffffffffffffff021916908373ffffffffffffffffffffffffffffffffffffffff1602179055506020820151816001019080519060200190610783929190610a3e565b5060408201518160020190805190602001906107a0929190610a3e565b5060608201518160030160006101000a81548160ff0219169083151502179055509050507f0a53c68ef33256714313e5315b965bcb99459f79da1d0cb30637294f1ebb78e533836040516107f59291906112ed565b60405180910390a150505050565b6000601e826040516108159190611244565b908152602001604051809103902090503373ffffffffffffffffffffffffffffffffffffffff168160000160009054906101000a900473ffffffffffffffffffffffffffffffffffffffff1673ffffffffffffffffffffffffffffffffffffffff16146108b7576040517f08c379a00000000000000000000000000000000000000000000000000000000081526004016108ae9061138f565b60405180910390fd5b601e826040516108c79190611244565b9081526020016040518091039020600080820160006101000a81549073ffffffffffffffffffffffffffffffffffffffff021916905560018201600061090d9190610ac4565b60028201600061091d9190610ac4565b6003820160006101000a81549060ff021916905550507f25b2d043657257ee83b423c70bdce6db66582d3b271c732cde34eeaf10fea32433836040516109649291906112ed565b60405180910390a15050565b600080601e836040516109839190611244565b908152602001604051809103902060030160009054906101000a900460ff1615601e846040516109b39190611244565b908152602001604051809103902060000160009054906101000a900473ffffffffffffffffffffffffffffffffffffffff1691509150915091565b6040518061028001604052806014905b60608152602001906001900390816109fe5790505090565b6040518061012001604052806009905b6060815260200190600190039081610a265790505090565b828054610a4a90611136565b90600052602060002090601f016020900481019282610a6c5760008555610ab3565b82601f10610a8557805160ff1916838001178555610ab3565b82800160010185558215610ab3579182015b82811115610ab2578251825591602001919060010190610a97565b5b509050610ac09190610b04565b5090565b508054610ad090611136565b6000825580601f10610ae25750610b01565b601f016020900490600052602060002090810190610b009190610b04565b5b50565b5b80821115610b1d576000816000905550600101610b05565b5090565b600060149050919050565b600081905092915050565b6000819050919050565b600081519050919050565b600082825260208201905092915050565b60005b83811015610b7b578082015181840152602081019050610b60565b83811115610b8a576000848401525b50505050565b6000601f19601f8301169050919050565b6000610bac82610b41565b610bb68185610b4c565b9350610bc6818560208601610b5d565b610bcf81610b90565b840191505092915050565b6000610be68383610ba1565b905092915050565b6000602082019050919050565b6000610c0682610b21565b610c108185610b2c565b935083602082028501610c2285610b37565b8060005b85811015610c5e5784840389528151610c3f8582610bda565b9450610c4a83610bee565b925060208a01995050600181019050610c26565b50829750879550505050505092915050565b60006020820190508181036000830152610c8a8184610bfb565b905092915050565b6000604051905090565b600080fd5b600080fd5b6000819050919050565b610cb981610ca6565b8114610cc457600080fd5b50565b600081359050610cd681610cb0565b92915050565b600060208284031215610cf257610cf1610c9c565b5b6000610d0084828501610cc7565b91505092915050565b600082825260208201905092915050565b6000610d2582610b41565b610d2f8185610d09565b9350610d3f818560208601610b5d565b610d4881610b90565b840191505092915050565b60006020820190508181036000830152610d6d8184610d1a565b905092915050565b600060099050919050565b600081905092915050565b6000819050919050565b6000602082019050919050565b6000610dad82610d75565b610db78185610d80565b935083602082028501610dc985610d8b565b8060005b85811015610e055784840389528151610de68582610bda565b9450610df183610d95565b925060208a01995050600181019050610dcd565b50829750879550505050505092915050565b60006020820190508181036000830152610e318184610da2565b905092915050565b600080fd5b600080fd5b7f4e487b7100000000000000000000000000000000000000000000000000000000600052604160045260246000fd5b610e7b82610b90565b810181811067ffffffffffffffff82111715610e9a57610e99610e43565b5b80604052505050565b6000610ead610c92565b9050610eb98282610e72565b919050565b600067ffffffffffffffff821115610ed957610ed8610e43565b5b610ee282610b90565b9050602081019050919050565b82818337600083830152505050565b6000610f11610f0c84610ebe565b610ea3565b905082815260208101848484011115610f2d57610f2c610e3e565b5b610f38848285610eef565b509392505050565b600082601f830112610f5557610f54610e39565b5b8135610f65848260208601610efe565b91505092915050565b600060208284031215610f8457610f83610c9c565b5b600082013567ffffffffffffffff811115610fa257610fa1610ca1565b5b610fae84828501610f40565b91505092915050565b600073ffffffffffffffffffffffffffffffffffffffff82169050919050565b6000610fe282610fb7565b9050919050565b610ff281610fd7565b82525050565b60008115159050919050565b61100d81610ff8565b82525050565b60006080820190506110286000830187610fe9565b818103602083015261103a8186610d1a565b9050818103604083015261104e8185610d1a565b905061105d6060830184611004565b95945050505050565b6000806040838503121561107d5761107c610c9c565b5b600083013567ffffffffffffffff81111561109b5761109a610ca1565b5b6110a785828601610f40565b925050602083013567ffffffffffffffff8111156110c8576110c7610ca1565b5b6110d485828601610f40565b9150509250929050565b60006040820190506110f36000830185611004565b6111006020830184610fe9565b9392505050565b7f4e487b7100000000000000000000000000000000000000000000000000000000600052602260045260246000fd5b6000600282049050600182168061114e57607f821691505b6020821081141561116257611161611107565b5b50919050565b600081519050919050565b600081905092915050565b600061118982611168565b6111938185611173565b93506111a3818560208601610b5d565b80840191505092915050565b7f2d00000000000000000000000000000000000000000000000000000000000000815250565b60006111e1828561117e565b91506111ec826111af565b6001820191506111fc828461117e565b91508190509392505050565b600081905092915050565b600061121e82610b41565b6112288185611208565b9350611238818560208601610b5d565b80840191505092915050565b60006112508284611213565b915081905092915050565b7f526f6f6d20697320616c726561647920626f6f6b656420666f7220746869732060008201527f686f75722e000000000000000000000000000000000000000000000000000000602082015250565b60006112b7602583610d09565b91506112c28261125b565b604082019050919050565b600060208201905081810360008301526112e6816112aa565b9050919050565b60006040820190506113026000830185610fe9565b81810360208301526113148184610d1a565b90509392505050565b7f596f7520617265206e6f7420616c6c6f77656420746f2063616e63656c20746860008201527f697320626f6f6b696e672e000000000000000000000000000000000000000000602082015250565b6000611379602b83610d09565b91506113848261131d565b604082019050919050565b600060208201905081810360008301526113a88161136c565b905091905056fea264697066735822122086ff86048cdceefeaf20bca656efafa8ba9b89d709cf1ac3ae8d1c7ec6118b5c64736f6c634300080b0033",
  "immutableReferences": {},
  "source": "// SPDX-License-Identifier: GPL-3.0\n\npragma solidity 0.8.11;\n\ncontract Booking {\n    event BookedTimeSlot(address _userBooking, string _bookingId);\n    event CanceledBooking(address _userBooking, string _bookingId);\n\n    struct BookingInfo {\n        address userBooking;\n        string timeSlot;\n        string roomId;\n        bool isBooked;\n    }\n\n    address private owner;\n    string[20] public rooms = ['C01', 'C02', 'C03', 'C04', 'C05', 'C06', 'C07', 'C08', 'C09', 'C10',\n        'P01', 'P02', 'P03', 'P04', 'P05', 'P06', 'P07', 'P08', 'P09', 'P10'\n    ];\n    string[9] public availableTimes = ['09', '10', '11', '12', '13', '14', '15', '16', '17'];\n    mapping(string => BookingInfo) public bookings;\n\n    constructor() {\n        owner = msg.sender;\n    }\n\n    function listRooms() public view returns (string[20] memory) {\n        return rooms;\n    }\n\n    function listTimes() public view returns (string[9] memory) {\n        return availableTimes;\n    }\n\n    function bookRoom(string memory _room, string memory _timeSlot) public {\n        string memory _bookingId = string(bytes.concat(bytes(_room), \"-\", bytes(_timeSlot)));\n        require(bookings[_bookingId].isBooked == false, \"Room is already booked for this hour.\");\n        BookingInfo memory _booking = BookingInfo({\n            userBooking: msg.sender,\n            timeSlot: _timeSlot,\n            roomId: _room,\n            isBooked: true\n        });\n        bookings[_bookingId] = _booking;\n        emit BookedTimeSlot(msg.sender, _bookingId);\n    }\n\n    function cancelBooking(string memory _bookingId) public {\n        BookingInfo storage booking = bookings[_bookingId];\n        require(booking.userBooking == msg.sender, 'You are not allowed to cancel this booking.');\n        delete bookings[_bookingId];\n        emit CanceledBooking(msg.sender, _bookingId);\n    }\n\n    function checkAvailability(string memory _bookingId) public view returns (bool, address) {\n        return (!bookings[_bookingId].isBooked, bookings[_bookingId].userBooking);\n    }\n}\n",
  "sourcePath": "/Users/efecarranza/projects/consensys/contracts/Booking.sol",
  "compiler": {
    "name": "solc",
    "version": "0.8.11+commit.d7f03943.Emscripten.clang"
  },
  "schemaVersion": "3.4.4",
  "updatedAt": "2022-01-03T04:55:43.886Z",
  "devdoc": {
    "kind": "dev",
    "methods": {},
    "version": 1
  },
  "userdoc": {
    "kind": "user",
    "methods": {},
    "version": 1
  }
}