{
  "contractName": "Booking",
  "abi": [
    {
      "inputs": [],
      "stateMutability": "nonpayable",
      "type": "constructor"
    },
    {
      "anonymous": false,
      "inputs": [
        {
          "indexed": false,
          "internalType": "address",
          "name": "_userBooking",
          "type": "address"
        },
        {
          "indexed": false,
          "internalType": "string",
          "name": "_bookingId",
          "type": "string"
        }
      ],
      "name": "BookedTimeSlot",
      "type": "event"
    },
    {
      "anonymous": false,
      "inputs": [
        {
          "indexed": false,
          "internalType": "address",
          "name": "_userBooking",
          "type": "address"
        },
        {
          "indexed": false,
          "internalType": "string",
          "name": "_bookingId",
          "type": "string"
        }
      ],
      "name": "CanceledBooking",
      "type": "event"
    },
    {
      "inputs": [
        {
          "internalType": "uint256",
          "name": "",
          "type": "uint256"
        }
      ],
      "name": "availableTimes",
      "outputs": [
        {
          "internalType": "string",
          "name": "",
          "type": "string"
        }
      ],
      "stateMutability": "view",
      "type": "function"
    },
    {
      "inputs": [
        {
          "internalType": "string",
          "name": "",
          "type": "string"
        }
      ],
      "name": "bookings",
      "outputs": [
        {
          "internalType": "address",
          "name": "userBooking",
          "type": "address"
        },
        {
          "internalType": "string",
          "name": "timeSlot",
          "type": "string"
        },
        {
          "internalType": "string",
          "name": "roomId",
          "type": "string"
        },
        {
          "internalType": "bool",
          "name": "isBooked",
          "type": "bool"
        }
      ],
      "stateMutability": "view",
      "type": "function"
    },
    {
      "inputs": [
        {
          "internalType": "uint256",
          "name": "",
          "type": "uint256"
        }
      ],
      "name": "rooms",
      "outputs": [
        {
          "internalType": "string",
          "name": "",
          "type": "string"
        }
      ],
      "stateMutability": "view",
      "type": "function"
    },
    {
      "inputs": [],
      "name": "listRooms",
      "outputs": [
        {
          "internalType": "string[20]",
          "name": "",
          "type": "string[20]"
        }
      ],
      "stateMutability": "view",
      "type": "function"
    },
    {
      "inputs": [],
      "name": "listTimes",
      "outputs": [
        {
          "internalType": "string[9]",
          "name": "",
          "type": "string[9]"
        }
      ],
      "stateMutability": "view",
      "type": "function"
    },
    {
      "inputs": [
        {
          "internalType": "string",
          "name": "_room",
          "type": "string"
        },
        {
          "internalType": "string",
          "name": "_timeSlot",
          "type": "string"
        }
      ],
      "name": "bookRoom",
      "outputs": [],
      "stateMutability": "nonpayable",
      "type": "function"
    },
    {
      "inputs": [
        {
          "internalType": "string",
          "name": "_bookingId",
          "type": "string"
        }
      ],
      "name": "cancelBooking",
      "outputs": [],
      "stateMutability": "nonpayable",
      "type": "function"
    },
    {
      "inputs": [
        {
          "internalType": "string",
          "name": "_bookingId",
          "type": "string"
        }
      ],
      "name": "checkAvailability",
      "outputs": [
        {
          "internalType": "bool",
          "name": "",
          "type": "bool"
        }
      ],
      "stateMutability": "view",
      "type": "function"
    }
  ],
  "bytecode": "0x60806040526040518061028001604052806040518060400160405280600381526020017f433031000000000000000000000000000000000000000000000000000000000081525081526020016040518060400160405280600381526020017f433032000000000000000000000000000000000000000000000000000000000081525081526020016040518060400160405280600381526020017f433033000000000000000000000000000000000000000000000000000000000081525081526020016040518060400160405280600381526020017f433034000000000000000000000000000000000000000000000000000000000081525081526020016040518060400160405280600381526020017f433035000000000000000000000000000000000000000000000000000000000081525081526020016040518060400160405280600381526020017f433036000000000000000000000000000000000000000000000000000000000081525081526020016040518060400160405280600381526020017f433037000000000000000000000000000000000000000000000000000000000081525081526020016040518060400160405280600381526020017f433038000000000000000000000000000000000000000000000000000000000081525081526020016040518060400160405280600381526020017f433039000000000000000000000000000000000000000000000000000000000081525081526020016040518060400160405280600381526020017f433130000000000000000000000000000000000000000000000000000000000081525081526020016040518060400160405280600381526020017f503031000000000000000000000000000000000000000000000000000000000081525081526020016040518060400160405280600381526020017f503032000000000000000000000000000000000000000000000000000000000081525081526020016040518060400160405280600381526020017f503033000000000000000000000000000000000000000000000000000000000081525081526020016040518060400160405280600381526020017f503034000000000000000000000000000000000000000000000000000000000081525081526020016040518060400160405280600381526020017f503035000000000000000000000000000000000000000000000000000000000081525081526020016040518060400160405280600381526020017f503036000000000000000000000000000000000000000000000000000000000081525081526020016040518060400160405280600381526020017f503037000000000000000000000000000000000000000000000000000000000081525081526020016040518060400160405280600381526020017f503038000000000000000000000000000000000000000000000000000000000081525081526020016040518060400160405280600381526020017f503039000000000000000000000000000000000000000000000000000000000081525081526020016040518060400160405280600381526020017f50313000000000000000000000000000000000000000000000000000000000008152508152506001906014620004bc92919062000741565b506040518061012001604052806040518060400160405280600281526020017f303900000000000000000000000000000000000000000000000000000000000081525081526020016040518060400160405280600281526020017f313000000000000000000000000000000000000000000000000000000000000081525081526020016040518060400160405280600281526020017f313100000000000000000000000000000000000000000000000000000000000081525081526020016040518060400160405280600281526020017f313200000000000000000000000000000000000000000000000000000000000081525081526020016040518060400160405280600281526020017f313300000000000000000000000000000000000000000000000000000000000081525081526020016040518060400160405280600281526020017f313400000000000000000000000000000000000000000000000000000000000081525081526020016040518060400160405280600281526020017f313500000000000000000000000000000000000000000000000000000000000081525081526020016040518060400160405280600281526020017f313600000000000000000000000000000000000000000000000000000000000081525081526020016040518060400160405280600281526020017f31370000000000000000000000000000000000000000000000000000000000008152508152506015906009620006ec9291906200079b565b50348015620006fa57600080fd5b50336000806101000a81548173ffffffffffffffffffffffffffffffffffffffff021916908373ffffffffffffffffffffffffffffffffffffffff16021790555062000978565b826014810192821562000788579160200282015b828111156200078757825182908051906020019062000776929190620007f5565b509160200191906001019062000755565b5b50905062000797919062000886565b5090565b8260098101928215620007e2579160200282015b82811115620007e1578251829080519060200190620007d0929190620007f5565b5091602001919060010190620007af565b5b509050620007f1919062000886565b5090565b828054620008039062000942565b90600052602060002090601f01602090048101928262000827576000855562000873565b82601f106200084257805160ff191683800117855562000873565b8280016001018555821562000873579182015b828111156200087257825182559160200191906001019062000855565b5b509050620008829190620008ae565b5090565b5b80821115620008aa5760008181620008a09190620008cd565b5060010162000887565b5090565b5b80821115620008c9576000816000905550600101620008af565b5090565b508054620008db9062000942565b6000825580601f10620008ef575062000910565b601f0160209004906000526020600020908101906200090f9190620008ae565b5b50565b7f4e487b7100000000000000000000000000000000000000000000000000000000600052602260045260246000fd5b600060028204905060018216806200095b57607f821691505b6020821081141562000972576200097162000913565b5b50919050565b61139180620009886000396000f3fe608060405234801561001057600080fd5b50600436106100885760003560e01c8063502bf35e1161005b578063502bf35e1461012957806361718a3d1461015c578063daec7f2714610178578063e1409a401461019457610088565b806310f701921461008d5780631bae0ac8146100ab5780632017b3dc146100db5780632a875521146100f9575b600080fd5b6100956101c4565b6040516100a29190610c2a565b60405180910390f35b6100c560048036038101906100c09190610c96565b610291565b6040516100d29190610d0d565b60405180910390f35b6100e3610334565b6040516100f09190610dd1565b60405180910390f35b610113600480360381019061010e9190610c96565b610401565b6040516101209190610d0d565b60405180910390f35b610143600480360381019061013e9190610f28565b6104a4565b6040516101539493929190610fcd565b60405180910390f35b61017660048036038101906101719190611020565b610627565b005b610192600480360381019061018d9190610f28565b610802565b005b6101ae60048036038101906101a99190610f28565b61096f565b6040516101bb9190611098565b60405180910390f35b6101cc6109a8565b6001601480602002604051908101604052809291906000905b828210156102885783820180546101fb906110e2565b80601f0160208091040260200160405190810160405280929190818152602001828054610227906110e2565b80156102745780601f1061024957610100808354040283529160200191610274565b820191906000526020600020905b81548152906001019060200180831161025757829003601f168201915b5050505050815260200190600101906101e5565b50505050905090565b600181601481106102a157600080fd5b0160009150905080546102b3906110e2565b80601f01602080910402602001604051908101604052809291908181526020018280546102df906110e2565b801561032c5780601f106103015761010080835404028352916020019161032c565b820191906000526020600020905b81548152906001019060200180831161030f57829003601f168201915b505050505081565b61033c6109d0565b6015600980602002604051908101604052809291906000905b828210156103f857838201805461036b906110e2565b80601f0160208091040260200160405190810160405280929190818152602001828054610397906110e2565b80156103e45780601f106103b9576101008083540402835291602001916103e4565b820191906000526020600020905b8154815290600101906020018083116103c757829003601f168201915b505050505081526020019060010190610355565b50505050905090565b6015816009811061041157600080fd5b016000915090508054610423906110e2565b80601f016020809104026020016040519081016040528092919081815260200182805461044f906110e2565b801561049c5780601f106104715761010080835404028352916020019161049c565b820191906000526020600020905b81548152906001019060200180831161047f57829003601f168201915b505050505081565b601e818051602081018201805184825260208301602085012081835280955050505050506000915090508060000160009054906101000a900473ffffffffffffffffffffffffffffffffffffffff1690806001018054610503906110e2565b80601f016020809104026020016040519081016040528092919081815260200182805461052f906110e2565b801561057c5780601f106105515761010080835404028352916020019161057c565b820191906000526020600020905b81548152906001019060200180831161055f57829003601f168201915b505050505090806002018054610591906110e2565b80601f01602080910402602001604051908101604052809291908181526020018280546105bd906110e2565b801561060a5780601f106105df5761010080835404028352916020019161060a565b820191906000526020600020905b8154815290600101906020018083116105ed57829003601f168201915b5050505050908060030160009054906101000a900460ff16905084565b6000828260405160200161063c929190611181565b604051602081830303815290604052905060001515601e8260405161066191906111f0565b908152602001604051809103902060030160009054906101000a900460ff161515146106c2576040517f08c379a00000000000000000000000000000000000000000000000000000000081526004016106b990611279565b60405180910390fd5b600060405180608001604052803373ffffffffffffffffffffffffffffffffffffffff16815260200184815260200185815260200160011515815250905080601e8360405161071191906111f0565b908152602001604051809103902060008201518160000160006101000a81548173ffffffffffffffffffffffffffffffffffffffff021916908373ffffffffffffffffffffffffffffffffffffffff16021790555060208201518160010190805190602001906107829291906109f8565b50604082015181600201908051906020019061079f9291906109f8565b5060608201518160030160006101000a81548160ff0219169083151502179055509050507f0a53c68ef33256714313e5315b965bcb99459f79da1d0cb30637294f1ebb78e533836040516107f4929190611299565b60405180910390a150505050565b6000601e8260405161081491906111f0565b908152602001604051809103902090503373ffffffffffffffffffffffffffffffffffffffff168160000160009054906101000a900473ffffffffffffffffffffffffffffffffffffffff1673ffffffffffffffffffffffffffffffffffffffff16146108b6576040517f08c379a00000000000000000000000000000000000000000000000000000000081526004016108ad9061133b565b60405180910390fd5b601e826040516108c691906111f0565b9081526020016040518091039020600080820160006101000a81549073ffffffffffffffffffffffffffffffffffffffff021916905560018201600061090c9190610a7e565b60028201600061091c9190610a7e565b6003820160006101000a81549060ff021916905550507f25b2d043657257ee83b423c70bdce6db66582d3b271c732cde34eeaf10fea3243383604051610963929190611299565b60405180910390a15050565b6000601e8260405161098191906111f0565b908152602001604051809103902060030160009054906101000a900460ff16159050919050565b6040518061028001604052806014905b60608152602001906001900390816109b85790505090565b6040518061012001604052806009905b60608152602001906001900390816109e05790505090565b828054610a04906110e2565b90600052602060002090601f016020900481019282610a265760008555610a6d565b82601f10610a3f57805160ff1916838001178555610a6d565b82800160010185558215610a6d579182015b82811115610a6c578251825591602001919060010190610a51565b5b509050610a7a9190610abe565b5090565b508054610a8a906110e2565b6000825580601f10610a9c5750610abb565b601f016020900490600052602060002090810190610aba9190610abe565b5b50565b5b80821115610ad7576000816000905550600101610abf565b5090565b600060149050919050565b600081905092915050565b6000819050919050565b600081519050919050565b600082825260208201905092915050565b60005b83811015610b35578082015181840152602081019050610b1a565b83811115610b44576000848401525b50505050565b6000601f19601f8301169050919050565b6000610b6682610afb565b610b708185610b06565b9350610b80818560208601610b17565b610b8981610b4a565b840191505092915050565b6000610ba08383610b5b565b905092915050565b6000602082019050919050565b6000610bc082610adb565b610bca8185610ae6565b935083602082028501610bdc85610af1565b8060005b85811015610c185784840389528151610bf98582610b94565b9450610c0483610ba8565b925060208a01995050600181019050610be0565b50829750879550505050505092915050565b60006020820190508181036000830152610c448184610bb5565b905092915050565b6000604051905090565b600080fd5b600080fd5b6000819050919050565b610c7381610c60565b8114610c7e57600080fd5b50565b600081359050610c9081610c6a565b92915050565b600060208284031215610cac57610cab610c56565b5b6000610cba84828501610c81565b91505092915050565b600082825260208201905092915050565b6000610cdf82610afb565b610ce98185610cc3565b9350610cf9818560208601610b17565b610d0281610b4a565b840191505092915050565b60006020820190508181036000830152610d278184610cd4565b905092915050565b600060099050919050565b600081905092915050565b6000819050919050565b6000602082019050919050565b6000610d6782610d2f565b610d718185610d3a565b935083602082028501610d8385610d45565b8060005b85811015610dbf5784840389528151610da08582610b94565b9450610dab83610d4f565b925060208a01995050600181019050610d87565b50829750879550505050505092915050565b60006020820190508181036000830152610deb8184610d5c565b905092915050565b600080fd5b600080fd5b7f4e487b7100000000000000000000000000000000000000000000000000000000600052604160045260246000fd5b610e3582610b4a565b810181811067ffffffffffffffff82111715610e5457610e53610dfd565b5b80604052505050565b6000610e67610c4c565b9050610e738282610e2c565b919050565b600067ffffffffffffffff821115610e9357610e92610dfd565b5b610e9c82610b4a565b9050602081019050919050565b82818337600083830152505050565b6000610ecb610ec684610e78565b610e5d565b905082815260208101848484011115610ee757610ee6610df8565b5b610ef2848285610ea9565b509392505050565b600082601f830112610f0f57610f0e610df3565b5b8135610f1f848260208601610eb8565b91505092915050565b600060208284031215610f3e57610f3d610c56565b5b600082013567ffffffffffffffff811115610f5c57610f5b610c5b565b5b610f6884828501610efa565b91505092915050565b600073ffffffffffffffffffffffffffffffffffffffff82169050919050565b6000610f9c82610f71565b9050919050565b610fac81610f91565b82525050565b60008115159050919050565b610fc781610fb2565b82525050565b6000608082019050610fe26000830187610fa3565b8181036020830152610ff48186610cd4565b905081810360408301526110088185610cd4565b90506110176060830184610fbe565b95945050505050565b6000806040838503121561103757611036610c56565b5b600083013567ffffffffffffffff81111561105557611054610c5b565b5b61106185828601610efa565b925050602083013567ffffffffffffffff81111561108257611081610c5b565b5b61108e85828601610efa565b9150509250929050565b60006020820190506110ad6000830184610fbe565b92915050565b7f4e487b7100000000000000000000000000000000000000000000000000000000600052602260045260246000fd5b600060028204905060018216806110fa57607f821691505b6020821081141561110e5761110d6110b3565b5b50919050565b600081519050919050565b600081905092915050565b600061113582611114565b61113f818561111f565b935061114f818560208601610b17565b80840191505092915050565b7f2d00000000000000000000000000000000000000000000000000000000000000815250565b600061118d828561112a565b91506111988261115b565b6001820191506111a8828461112a565b91508190509392505050565b600081905092915050565b60006111ca82610afb565b6111d481856111b4565b93506111e4818560208601610b17565b80840191505092915050565b60006111fc82846111bf565b915081905092915050565b7f526f6f6d20697320616c726561647920626f6f6b656420666f7220746869732060008201527f686f75722e000000000000000000000000000000000000000000000000000000602082015250565b6000611263602583610cc3565b915061126e82611207565b604082019050919050565b6000602082019050818103600083015261129281611256565b9050919050565b60006040820190506112ae6000830185610fa3565b81810360208301526112c08184610cd4565b90509392505050565b7f596f7520617265206e6f7420616c6c6f77656420746f2063616e63656c20746860008201527f697320626f6f6b696e672e000000000000000000000000000000000000000000602082015250565b6000611325602b83610cc3565b9150611330826112c9565b604082019050919050565b6000602082019050818103600083015261135481611318565b905091905056fea264697066735822122033b7cb0cf2bbc8b1d3964e8d300168d8881edf43a21c15c8116feb41885c2be864736f6c634300080b0033",
  "immutableReferences": {},
  "source": "// SPDX-License-Identifier: GPL-3.0\n\npragma solidity 0.8.11;\n\ncontract Booking {\n    event BookedTimeSlot(address _userBooking, string _bookingId);\n    event CanceledBooking(address _userBooking, string _bookingId);\n\n    struct BookingInfo {\n        address userBooking;\n        string timeSlot;\n        string roomId;\n        bool isBooked;\n    }\n\n    address private owner;\n    string[20] public rooms = ['C01', 'C02', 'C03', 'C04', 'C05', 'C06', 'C07', 'C08', 'C09', 'C10',\n        'P01', 'P02', 'P03', 'P04', 'P05', 'P06', 'P07', 'P08', 'P09', 'P10'\n    ];\n    string[9] public availableTimes = ['09', '10', '11', '12', '13', '14', '15', '16', '17'];\n    mapping(string => BookingInfo) public bookings;\n\n    constructor() {\n        owner = msg.sender;\n    }\n\n    function listRooms() public view returns (string[20] memory) {\n        return rooms;\n    }\n\n    function listTimes() public view returns (string[9] memory) {\n        return availableTimes;\n    }\n\n    function bookRoom(string memory _room, string memory _timeSlot) public {\n        string memory _bookingId = string(bytes.concat(bytes(_room), \"-\", bytes(_timeSlot)));\n        require(bookings[_bookingId].isBooked == false, \"Room is already booked for this hour.\");\n        BookingInfo memory _booking = BookingInfo({\n            userBooking: msg.sender,\n            timeSlot: _timeSlot,\n            roomId: _room,\n            isBooked: true\n        });\n        bookings[_bookingId] = _booking;\n        emit BookedTimeSlot(msg.sender, _bookingId);\n    }\n\n    function cancelBooking(string memory _bookingId) public {\n        BookingInfo storage booking = bookings[_bookingId];\n        require(booking.userBooking == msg.sender, 'You are not allowed to cancel this booking.');\n        delete bookings[_bookingId];\n        emit CanceledBooking(msg.sender, _bookingId);\n    }\n\n    function checkAvailability(string memory _bookingId) public view returns (bool) {\n        return !bookings[_bookingId].isBooked;\n    }\n}\n",
  "sourcePath": "/Users/efecarranza/projects/consensys/contracts/Booking.sol",
  "compiler": {
    "name": "solc",
    "version": "0.8.11+commit.d7f03943.Emscripten.clang"
  },
  "schemaVersion": "3.4.4",
  "updatedAt": "2022-01-03T02:32:12.460Z",
  "devdoc": {
    "kind": "dev",
    "methods": {},
    "version": 1
  },
  "userdoc": {
    "kind": "user",
    "methods": {},
    "version": 1
  }
}